:020000040000FA
:0600000097EF01F0120071
:020006000000F8
:08000800B5EF00F01200946A4C
:10001000F28E8F0EE66E6BEC01F0E552ED0ED66EB1
:10002000B10ED76E120002D803D8FED707EF00F04A
:020030001200BC
:0E003200EDD8FAD804E63C0E005C000E015832
:1000400005E2DF2A010EF6E3DB2AF4D7020EE15CBB
:1000500002E2E16AE552E4D0DAD8E7D804E62F0EEE
:10006000005C000E015805E2DF2A010EF6E3DB2AF0
:10007000F4D7020EE15C02E2E16AE552D1D0C7D8C2
:10008000DECF00F0DDCF01F0FD0EDBCF02F0FE0E83
:10009000DBCF03F001500318E8AE02D0033404D0E4
:1000A0000250005C0350015806E2D6DFDF2A010E41
:1000B000E7E3DB2AE5D7020EE15C02E2E16AE55202
:1000C000AFD0D9CFE6FFE1CFD9FF020EE126DE6A3D
:1000D000DD6ADECF00F0DDCF01F0D890015004E6FC
:1000E0002C0E005C000E015805E2DF2A010E01E330
:1000F000DB2AEFD700000000000000000000000035
:100100000000020EE15C02E2E16AE552E16EE552B6
:10011000E7CFD9FF1200D9CFE6FFE1CFD9FF020E1A
:10012000E126DE6ADD6ADECF00F0DDCF01F0D89097
:10013000015004E6160E005C000E015805E2DF2AAD
:10014000010E01E3DB2AEFD70000000000000000F1
:10015000000000000000020EE15C02E2E16AE552EC
:10016000E16EE552E7CFD9FF1200DACFE4FFE2CF2C
:10017000DAFFE9CFE4FFEACFE4FFF6CFE4FFF7CF01
:10018000E4FFF5CFE4FFF3CFE4FFF4CFE4FFFACFD1
:10019000E4FF00EE04F0020EE80403E3EECFE4FF18
:1001A000FBD700EE00F0040EE80403E3EECFE4FF1B
:1001B000FBD7E652ED0ED66EB10ED76EF29482806A
:1001C00038DF37DF8290E55200EE03F0040EE804DA
:1001D00003E3E5CFEDFFFBD700EE05F0020EE804E8
:1001E00003E3E5CFEDFFFBD7E5CFFAFFE5CFF4FF63
:1001F000E5CFF3FFE5CFF5FFE5CFF7FFE5CFF6FF5E
:10020000E5CFEAFFE5CFE9FFE5CFDAFF1100D9CF6F
:10021000E6FFE1CFD9FF020EE126DE6ADD6A1200B9
:10022000E16EE552E7CFD9FF1200DECF00F0DDCF5F
:0802300001F0D890015012000A
:08023800060EF66E000EF76ED3
:10024000000EF86E00010900F550656F0900F550C9
:10025000666F03E1656701D03DD00900F550606F1E
:100260000900F550616F0900F550626F090009003F
:10027000F550E96E0900F550EA6E09000900090021
:10028000F550636F0900F550646F09000900F6CF5F
:1002900067F0F7CF68F0F8CF69F060C0F6FF61C093
:1002A000F7FF62C0F8FF0001635302E1645307E007
:1002B0000900F550EE6E6307F8E26407F9D767C0EE
:1002C000F6FF68C0F7FF69C0F8FF00016507000E80
:0602D000665BBFD71200BF
:0A02D600D9CFE6FFDACFE6FFE1CF53
:1002E000D9FFE2CFDAFFFD0EDB507F0BD56ED76A68
:1002F000D66AF294FD0EDBAE02D0F28A01D0F29AF9
:0E030000D58EE552E5CFDAFFE7CFD9FF120028
:02030E00000EDF
:10031000F36E00EE00F0080E01D81200EA6002D081
:0E032000EE6AFCD7F350E9601200EE6AFCD7DB
:02032E0013EECC
:1003300000F023EE00F0F86A059C1CEC01F0A5EC3F
:0A03400001F013EC00F0FBD71200EF
:02034A0012009F
:00000001FF
