:020000040000FA
:060000001BEF01F01200ED
:020006000000F8
:080008002DEF00F01200D9CF2A
:10001000E6FFE1CFD9FFE652DF6A00016A51DF5CFB
:1000200002E2DF2AFAD7E552E552E7CFD9FF120004
:10003000946AF28E8F0EE66EEFEC00F0E552E30E5E
:10004000D66E150ED76E0001F90E6A6F120002D837
:0A00500003D8FED718EF00F01200ED
:06005A00DACFE4FFE2CF63
:10006000DAFFE9CFE4FFEACFE4FFF6CFE4FFF7CF12
:10007000E4FFF5CFE4FFF3CFE4FFF4CFE4FFFACFE2
:10008000E4FF00EE00F0020EE80403E3EECFE4FF2D
:10009000FBD700EE03F0000EE80403E3EECFE4FF2D
:1000A000FBD7E652D9CFE6FFE1CFD9FFE652DF6AB0
:1000B000E30ED66E150ED76EF29482801C0EE66E9D
:1000C00029EC01F0E552120EE66E37EC01F0E55234
:1000D000000000000000000000016A51DF5C07E240
:1000E00000000000000000000000DF2AF5D7829029
:1000F000E552E552E7CFD9FFE55200EE02F0000EDF
:10010000E80403E3E5CFEDFFFBD700EE01F0020EBC
:10011000E80403E3E5CFEDFFFBD7E5CFFAFFE5CF3A
:10012000F4FFE5CFF3FFE5CFF5FFE5CFF7FFE5CF30
:10013000F6FFE5CFEAFFE5CFE9FFE5CFDAFF1100F3
:10014000060EF66E000EF76E000EF86E0001090046
:10015000F550656F0900F550666F03E1656701D0E2
:100160003DD00900F550606F0900F550616F09003E
:10017000F550626F09000900F550E96E0900F5506D
:10018000EA6E090009000900F550636F0900F55097
:10019000646F09000900F6CF67F0F7CF68F0F8CF79
:1001A00069F060C0F6FF61C0F7FF62C0F8FF0001B0
:1001B000635302E1645307E00900F550EE6E6307F4
:1001C000F8E26407F9D767C0F6FF68C0F7FF69C0B7
:0E01D000F8FF00016507000E665BBFD7120046
:0201DE00D9CF77
:1001E000E6FFDACFE6FFE1CFD9FFE2CFDAFFFD0E7F
:1001F000DB507F0BD56ED76AD66AF294FD0EDBAE6C
:1002000002D0F28A01D0F29AD58EE552E5CFDAFF1C
:06021000E7CFD9FF120048
:0A021600000EF36E00EE00F0080E7B
:1002200001D81200EA6002D0EE6AFCD7F350E96010
:060230001200EE6AFCD78B
:0A02360013EE00F023EE00F0F86A6A
:10024000019CA0EC00F042EC01F027EC00F0FBD7A1
:0202500012009A
:0E025200FF0EE350026E1B0E00D001D0200EF6
:0E026000E76EE72EFED7022EFAD700D012006E
:02026E00FF0E81
:10027000E350E84E1200000000D000D000D0E82E7D
:04028000FAD7120097
:02028400120066
:00000001FF
