:020000040000FA
:060000009DEF01F012006B
:020006000000F8
:060008005DEF00F01200A4
:02000E00D9CF48
:10001000E6FFE1CFD9FFE652DF6A80B0FED71CD8F9
:1000200034D88050010BDF6EF9D8E824DF12F6D8FF
:10003000040DEBD8080DE9D8100DE7D8200DE5D850
:10004000400DE3D8800DF350DF1206D8DF50E552A3
:10005000E552E7CFD9FF1200020EE66E7DEC01F00B
:10006000E552040EE66EABEC01F0E552080EE66ECA
:10007000B9EC01F0E55200000000000000000000B3
:1000800000000000000000001200010EE66E7DEC92
:1000900001F0E552020EE66EABEC01F0E552040E03
:1000A000E66EB9EC01F0E55200000000000000002F
:1000B00012000F0EC16E92801200DACFE4FFE2CF81
:1000C000DAFFE9CFE4FFEACFE4FFF6CFE4FFF7CFB2
:1000D000E4FFF5CFE4FFF3CFE4FFF4CFE4FFFACF82
:1000E000E4FF00EE00F0020EE80403E3EECFE4FFCD
:1000F000FBD700EE03F0000EE80403E3EECFE4FFCD
:10010000FBD7E652D9CFE6FFE1CFD9FFE652DF6A4F
:10011000DD0ED66E150ED76EF29482801C0EE66E42
:10012000ABEC01F0E552120EE66EB9EC01F0E552CF
:10013000000000000000000000016A51DF5C07E2DF
:1001400000000000000000000000DF2AF5D78290C8
:10015000E552E552E7CFD9FFE55200EE02F0000E7E
:10016000E80403E3E5CFEDFFFBD700EE01F0020E5C
:10017000E80403E3E5CFEDFFFBD7E5CFFAFFE5CFDA
:10018000F4FFE5CFF3FFE5CFF5FFE5CFF7FFE5CFD0
:10019000F6FFE5CFEAFFE5CFE9FFE5CFDAFF110093
:1001A000946AF28E8F0EE66E61EC01F0E552E30E7A
:1001B000D66E150ED76E0001F90E6A6F120002D8C6
:1001C00004D8FED776DFD0EF00F0D9CFE6FFE1CF3D
:1001D000D9FF050EE1261BDFDF6E520EDF5C0BE15F
:1001E00016DFE76E010E15D8020E13D8030E11D8D4
:1001F000040EE7CFDBFF050EE15C02E2E16AE552A7
:10020000E16EE552E7CFD9FF1200F350DF120EEF97
:1002100001F0E7CFDBFFFBDEE76E12001DDF805051
:04022000010B1200BC
:0C022400060EF66E000EF76E000EF86E6F
:1002300000010900F550656F0900F550666F03E194
:10024000656701D03DD00900F550606F0900F55099
:10025000616F0900F550626F09000900F550E96E01
:100260000900F550EA6E090009000900F550636FB6
:100270000900F550646F09000900F6CF67F0F7CF69
:1002800068F0F8CF69F060C0F6FF61C0F7FF62C0A8
:10029000F8FF0001635302E1645307E00900F550E1
:1002A000EE6E6307F8E26407F9D767C0F6FF68C02F
:1002B000F7FF69C0F8FF00016507000E665BBFD756
:0202C00012002A
:0E02C200D9CFE6FFDACFE6FFE1CFD9FFE2CFDA
:1002D000DAFFFD0EDB507F0BD56ED76AD66AF2943B
:1002E000FD0EDBAE02D0F28A01D0F29AD58EE55235
:0A02F000E5CFDAFFE7CFD9FF1200D7
:0602FA00FF0EE350026E4E
:10030000480E01D04C0EE76EE72EFED7E76AE72EC7
:0A031000FED7022EF7D700001200FE
:06031A00000EF36E00EE80
:1003200000F0080E01D81200EA6002D0EE6AFCD795
:0A033000F350E9601200EE6AFCD7FA
:06033A0013EE00F023EEBB
:1003400000F0F86A019C12EC01F0C4EC01F0DFEC63
:0603500000F0FBD71200D3
:0A035600FF0EE350026E1B0E00D0F4
:1003600001D0200EE76EE72EFED7022EFAD700D07E
:02037000120079
:0E037200FF0EE350E84E1200000000D000D055
:0803800000D0E82EFAD71200AC
:02038800120061
:00000001FF
